S01200004B65796261645F6170702E7372656322
S11300000C942A000C9447000C9447000C9447006D
S11300100C9447000C9447000C9447000C94470040
S11300200C9447000C9447000C9447000C94470030
S11300300C9447000C9447000C9447000C94470020
S11300400C9447000C9447000C9447000C94470010
S11300500C94470011241FBECFE5D8E0DEBFCDBF0E
S113006010E0A0E6B0E0E4EEF9E002C005900D92E5
S1130070AC37B107D9F710E0ACE7B0E001C01D928E
S1130080AD37B107E1F70E9484020C94F0040C949C
S11300900000CF930E94E902C82F833429F00E9404
S11300A0E902C82F8334D9F70E94E9028C17E1F3DF
S11300B081E00E944003CF9108958F929F92AF9266
S11300C0BF92CF92DF92EF92FF920F934B015C01AC
S11300D069017A0180EC0E9440030B3251F00C322A
S11300E01CF40A3259F522C00D3261F00F3231F599
S11300F012C0C80CD91CEA1CFB1CC701B6010E9423
S113010044041CC0C501B4016C197D098E099F0902
S11301100E94440413C0C501B401A70196010E94C2
S1130120CE04CA01B9010E94440408C0C701B60143
S1130130A50194010E94AF040E9444040F91FF9012
S1130140EF90DF90CF90BF90AF909F908F900895E5
S11301504F925F926F927F92AF92CF92DF92EF9223
S1130160FF920F931F93CF93DF93CDB7DEB72897FA
S11301700FB6F894DEBF0FBECDBF6D837E838F8331
S1130180988729013A01E982FA820B831C830C2D9A
S113019080EC0E9440030A3271F00F3209F065C00E
S11301A06D817E818F819885A30192010E94CE0486
S11301B089019A010AC0C301B2012D813E814F8198
S11301C058850E94AF048B019C010F2EFBE2CF2EB9
S11301D0F02DAC14C1F0CA1444F00F2EFAE2DF2E55
S11301E0F02DAD1409F0D8C035C00F2EFDE2EF2E6E
S11301F0F02DAE14A9F00F2EFFE2FF2EF02DAF1458
S113020009F0CAC01AC089819A81AB81BC81080FE8
S1130210191F2A1F3B1FC901B8010E944404BCC016
S1130220C901B801C980DA80EB80FC806C197D09B2
S11302308E099F090E944404AFC0C901B8012981F5
S11302403A814B815C810E94CE04CA01B9010E94AB
S11302504404A2C0C901B80129813A814B815C815F
S11302600E94AF040E94440497C00F2EFAE2DF2ECE
S1130270F02DAD1491F00F2EFFE2EF2EF02DAE1401
S113028009F053C0C301B20129813A814B815C81D9
S11302900E94CE0429013A010AC069817A818B81C6
S11302A09C81A30192010E94AF042B013C010B32FB
S11302B061F00C3224F40A3209F06EC02BC00D3206
S11302C089F00F3209F068C018C08D819E81AF811A
S11302D0B885480E591E6A1E7B1EC301B2010E94D6
S11302E044045AC06D817E818F8198856419750993
S11302F0860997090E9444044FC06D817E818F81D5
S11303009885A30192010E94CE04CA01B9010E94FA
S1130310440442C0C301B2012D813E814F815885FE
S11303200E94AF040E94440437C00B3249F4CD80CC
S1130330DE80EF80F8844C0C5D1C6E1C7F1C10C0AA
S11303400D3259F48D819E81AF81B8858419950948
S1130350A609B7092C013D0103C0442455243201E8
S11303609BE2A91669F4C980DA80EB80FC804C0C0E
S11303705D1C6E1C7F1CC301B2010E9444040CC0AE
S113038089819A81AB81BC81481A590A6A0A7B0A1D
S1130390C301B2010E94440428960FB6F894DEBF4C
S11303A00FBECDBFDF91CF911F910F91FF90EF90C2
S11303B0DF90CF90AF907F906F905F904F900895B3
S11303C0AF92BF92CF92DF92EF92FF920F931F935F
S11303D0CF93DF935C01FC0110821182128213829D
S11303E001E010E00E94E902D82F8F3FD9F3C82F13
S11303F00E94E9028C17E1F38C2F9C2F90539A30C2
S113040060F58C2F992787FD9095C0976C01EE2499
S1130410D7FCE094FE2CB80180E090E0F501208147
S11304203181428153810E94AF04C60ED71EE81E5B
S1130430F91EF501C082D182E282F3828C2F0E94E0
S1130440D403C801880F991F000F111F000F111F3B
S1130450000F111F080F191F45C0CB3231F0CD32E8
S113046021F0CA3211F0CF32C1F40E94D40380913A
S11304707C00823019F00130110559F410927C008F
S11304808CE00E94400380E690E00E942E04D0E0BD
S11304902FC08F5F80937C002BC0CD33D1F40E949A
S11304A0D40380917C008150823040F401301105E6
S11304B029F083E080937C00DC2F1AC010927C002A
S11304C08CE00E94400380E690E00E942E04D0E07D
S11304D00FC0C33439F481E00E94400310927C00C1
S11304E0DC2F06C0F3E0093E1F0708F47BCF01C0F0
S11304F08D2FDF91CF911F910F91FF90EF90DF909F
S1130500CF90BF90AF900895CF93DF93CDB7DEB770
S11305102C970FB6F894DEBF0FBECDBF0E949A038E
S11305200E94DD0210927C00CE0101960E94E0013F
S1130530C82E882319F40E944900F4CF83E4C81616
S113054089F3CE0105960E94E001A82E882319F4B0
S11305500E944900E7CF80917C00833071F4698167
S11305607A818B819C812D813E814F8158850C2D10
S11305700E945D000E944900D5CFCE0109960E94D9
S1130580E001882319F40E944900CCCF833451F24E
S113059080917C00833031F669817A818B819C81E2
S11305A02D813E814F815885E984FA840B851C8511
S11305B00E94A8000E944900B5CF8A988B988C9815
S11305C08D9882B38C6382BBBC9ABD9ABE9ABF9A43
S11305D00895E0E088B38F7088BBEE2321F488B3DC
S11305E0806E88BB0CC0E13021F488B3806D88BB79
S11305F00BC0E23021F488B3806B88BB05C0E330C4
S113060019F488B3806788BB80B382FD09C0F0E029
S1130610EE0FFF1FEE0FFF1FE459FF4F8081089577
S113062080B383FD09C0F0E0EE0FFF1FEE0FFF1F44
S1130630E459FF4F8181089580B384FD09C0F0E03F
S1130640EE0FFF1FEE0FFF1FE459FF4F8281089545
S113065080B385FD09C0F0E0EE0FFF1FEE0FFF1F12
S1130660E459FF4F838108958FE99FE00197F1F7E3
S113067000C00000EF5FE43009F0ACCF8FEF0895C5
S1130680D998982F92959F7090FF02C0DB9A01C071
S1130690DB98982F92959695977090FF02C0DC9AFC
S11306A001C0DC98982F929596959695937090FF3B
S11306B002C0DD9A01C0DD98882314F4DE9A01C0DB
S11306C0DE98DA9AEFE9FFE03197F1F700C0000015
S11306D0DA98EFE9FFE03197F1F700C0000080FFFE
S11306E002C0DB9A01C0DB98982F969590FF02C058
S11306F0DC9A01C0DC98982F9695969590FF02C0DD
S1130700DD9A01C0DD9886958695869580FF02C0A6
S1130710DE9A01C0DE98DA9A8FE99FE00197F1F73B
S113072000C00000DA98EFE9FFE03197F1F700C06C
S1130730000008958AB38E678ABB83E00E94400359
S11307408FE79EE30197F1F700C0000083E00E9469
S11307504003AFE7BEE31197F1F700C0000083E068
S11307600E9440038FE79EE30197F1F700C0000069
S113077082E00E94400388E20E94400388E00E94D5
S1130780400381E00E94400386E00E9440038FEF13
S113079099EFA0E081509040A040E1F700C0000034
S11307A08CE00E9440030895D99A982F92959F70E7
S11307B090FF02C0DB9A01C0DB98982F9295969522
S11307C0977090FF02C0DC9A01C0DC98982F929534
S11307D096959695937090FF02C0DD9A01C0DD98BE
S11307E0882314F4DE9A01C0DE98DA9AEFE9FFE078
S11307F03197F1F700C00000DA98EFE9FFE0319794
S1130800F1F700C0000080FF02C0DB9A01C0DB9852
S1130810982F969590FF02C0DC9A01C0DC98982F1F
S11308209695969590FF02C0DD9A01C0DD98869555
S11308308695869580FF02C0DE9A01C0DE98DA9A1A
S11308408FE99FE00197F1F700C00000DA98EFE923
S1130850FFE03197F1F700C0000008950F931F9354
S1130860CF938C01FC018081882351F0C0E00E9469
S1130870D403CF5FF801EC0FF11D80818823B9F711
S1130880CF911F910F9108958F929F92AF92BF9233
S1130890EF92FF921F93CF93DF93CDB7DEB72A97E2
S11308A00FB6F894DEBF0FBECDBFDC01CB01AE01A5
S11308B04F5F5F4F2AE0FA0111922A95E9F70097FA
S11308C0A105B10521F480E30E94D40338C010E0EF
S11308D00F2EFAE08F2EF0E09F2EF0E0AF2EF0E026
S11308E0BF2EF02DE12EFF24E7FCF09421E030E050
S11308F02C0F3D1FE20EF31EBC01CD01A501940196
S11309000E94CE04605DF7016083822F932FA42F91
S1130910B52F1F5F0097A105B10521F711507AF09B
S1130920E12FFF27E7FDF09521E030E02C0F3D1F7C
S1130930E20FF31F80810E94D403115088F72A9696
S11309400FB6F894DEBF0FBECDBFDF91CF911F91DC
S1130950FF90EF90BF90AF909F908F900895629F0B
S1130960D001739FF001829FE00DF11D649FE00DA3
S1130970F11D929FF00D839FF00D749FF00D659F04
S1130980F00D9927729FB00DE11DF91F639FB00D03
S1130990E11DF91FBD01CF0111240895A1E21A2E12
S11309A0AA1BBB1BFD010DC0AA1FBB1FEE1FFF1F0F
S11309B0A217B307E407F50720F0A21BB30BE40B5F
S11309C0F50B661F771F881F991F1A9469F76095A6
S11309D07095809590959B01AC01BD01CF01089560
S10709E0F894FFCFB5
S11309E477726F6E6720656E747279002F393837A9
S10F09F42A3635342D3332312B3D30438C
S9030000FC
